{
  "contractName": "CFunding",
  "abi": [
    {
      "constant": true,
      "inputs": [],
      "name": "timestamp",
      "outputs": [
        {
          "name": "",
          "type": "uint256"
        }
      ],
      "payable": false,
      "stateMutability": "view",
      "type": "function"
    },
    {
      "constant": false,
      "inputs": [],
      "name": "initialize",
      "outputs": [],
      "payable": false,
      "stateMutability": "nonpayable",
      "type": "function"
    },
    {
      "constant": false,
      "inputs": [
        {
          "name": "beneficiary",
          "type": "address"
        },
        {
          "name": "goal",
          "type": "uint256"
        }
      ],
      "name": "newCampaign",
      "outputs": [
        {
          "name": "campaignID",
          "type": "uint256"
        }
      ],
      "payable": false,
      "stateMutability": "nonpayable",
      "type": "function"
    },
    {
      "constant": false,
      "inputs": [
        {
          "name": "campaignID",
          "type": "uint256"
        }
      ],
      "name": "contribute",
      "outputs": [],
      "payable": true,
      "stateMutability": "payable",
      "type": "function"
    },
    {
      "constant": false,
      "inputs": [
        {
          "name": "campaignID",
          "type": "uint256"
        }
      ],
      "name": "checkGoalReached",
      "outputs": [
        {
          "name": "reached",
          "type": "bool"
        }
      ],
      "payable": false,
      "stateMutability": "nonpayable",
      "type": "function"
    },
    {
      "constant": true,
      "inputs": [
        {
          "name": "campaignID",
          "type": "uint256"
        }
      ],
      "name": "viewCampaignDetails",
      "outputs": [
        {
          "name": "",
          "type": "address"
        },
        {
          "name": "",
          "type": "uint256"
        },
        {
          "name": "",
          "type": "uint256"
        },
        {
          "name": "",
          "type": "uint256"
        }
      ],
      "payable": false,
      "stateMutability": "view",
      "type": "function"
    },
    {
      "constant": true,
      "inputs": [
        {
          "name": "campaignID",
          "type": "uint256"
        }
      ],
      "name": "viewCampaignFunders",
      "outputs": [
        {
          "name": "",
          "type": "address[]"
        },
        {
          "name": "",
          "type": "uint256[]"
        }
      ],
      "payable": false,
      "stateMutability": "view",
      "type": "function"
    }
  ],
  "bytecode": "0x608060405234801561001057600080fd5b506108c6806100206000396000f3fe608060405260043610610083576000357c0100000000000000000000000000000000000000000000000000000000900463ffffffff1680635b2329d414610088578063699c4f14146100db5780636d170e99146101b35780638129fc1c14610243578063b80777ea1461025a578063c1cbbca714610285578063f7572cf3146102b3575b600080fd5b34801561009457600080fd5b506100c1600480360360208110156100ab57600080fd5b8101908080359060200190929190505050610322565b604051808215151515815260200191505060405180910390f35b3480156100e757600080fd5b50610114600480360360208110156100fe57600080fd5b81019080803590602001909291905050506103de565b604051808060200180602001838103835285818151815260200191508051906020019060200280838360005b8381101561015b578082015181840152602081019050610140565b50505050905001838103825284818151815260200191508051906020019060200280838360005b8381101561019d578082015181840152602081019050610182565b5050505090500194505050505060405180910390f35b3480156101bf57600080fd5b506101ec600480360360208110156101d657600080fd5b8101908080359060200190929190505050610540565b604051808573ffffffffffffffffffffffffffffffffffffffff1673ffffffffffffffffffffffffffffffffffffffff16815260200184815260200183815260200182815260200194505050505060405180910390f35b34801561024f57600080fd5b506102586105a4565b005b34801561026657600080fd5b5061026f6106e0565b6040518082815260200191505060405180910390f35b6102b16004803603602081101561029b57600080fd5b81019080803590602001909291905050506106e6565b005b3480156102bf57600080fd5b5061030c600480360360408110156102d657600080fd5b81019080803573ffffffffffffffffffffffffffffffffffffffff169060200190929190803590602001909291905050506107b9565b6040518082815260200191505060405180910390f35b6000806035600084815260200190815260200160002090508060010154816003015410156103545760009150506103d9565b600081600301549050600082600301819055508160000160009054906101000a900473ffffffffffffffffffffffffffffffffffffffff1673ffffffffffffffffffffffffffffffffffffffff166108fc829081150290604051600060405180830381858888f193505050501580156103d1573d6000803e3d6000fd5b506001925050505b919050565b60608060006035600085815260200190815260200160002090506060816002015460405190808252806020026020018201604052801561042d5781602001602082028038833980820191505090505b509050606082600201546040519080825280602002602001820160405280156104655781602001602082028038833980820191505090505b50905060008090505b836002015481101561053157600084600401600083815260200190815260200160002090508060000160009054906101000a900473ffffffffffffffffffffffffffffffffffffffff1684838151811015156104c657fe5b9060200190602002019073ffffffffffffffffffffffffffffffffffffffff16908173ffffffffffffffffffffffffffffffffffffffff16815250508060010154838381518110151561051557fe5b906020019060200201818152505050808060010191505061046e565b50818194509450505050915091565b60008060008060006035600087815260200190815260200160002090508060000160009054906101000a900473ffffffffffffffffffffffffffffffffffffffff168160010154826002015483600301548393509450945094509450509193509193565b600060019054906101000a900460ff16806105c357506105c2610889565b5b806105da57506000809054906101000a900460ff16155b1515610674576040517f08c379a000000000000000000000000000000000000000000000000000000000815260040180806020018281038252602e8152602001807f436f6e747261637420696e7374616e63652068617320616c726561647920626581526020017f656e20696e697469616c697a656400000000000000000000000000000000000081525060400191505060405180910390fd5b60008060019054906101000a900460ff1690506001600060016101000a81548160ff02191690831515021790555060016000806101000a81548160ff0219169083151502179055504260338190555080600060016101000a81548160ff02191690831515021790555050565b60335481565b600060356000838152602001908152602001600020905060408051908101604052803373ffffffffffffffffffffffffffffffffffffffff1681526020013481525081600401600083600201600081548092919060010191905055815260200190815260200160002060008201518160000160006101000a81548173ffffffffffffffffffffffffffffffffffffffff021916908373ffffffffffffffffffffffffffffffffffffffff160217905550602082015181600101559050503481600301600082825401925050819055505050565b6000603460008154809291906001019190505590506080604051908101604052808473ffffffffffffffffffffffffffffffffffffffff1681526020018381526020016000815260200160008152506035600083815260200190815260200160002060008201518160000160006101000a81548173ffffffffffffffffffffffffffffffffffffffff021916908373ffffffffffffffffffffffffffffffffffffffff16021790555060208201518160010155604082015181600201556060820151816003015590505092915050565b600080303b9050600081149150509056fea165627a7a7230582068482f596709b9964036d4097dfdf984c541cb588273c85a23c87859749415bc0029",
  "source": "pragma solidity >=0.4.11 <0.6.0;\r\n\r\n// pretty much the same contract as CrowdFunding, except it is compatible with zos-lib\r\nimport \"zos-lib/contracts/Initializable.sol\";\r\ncontract CFunding is Initializable {\r\n    uint public timestamp;\r\n    \r\n    function initialize() initializer public {\r\n      timestamp = block.timestamp;\r\n    }\r\n    // Defines a new type with two fields.\r\n    struct Funder {\r\n        address addr;\r\n        uint amount;\r\n    }\r\n\r\n    struct Campaign {\r\n        address payable beneficiary;\r\n        uint fundingGoal;\r\n        uint numFunders;\r\n        uint amount;\r\n        mapping (uint => Funder) funders;\r\n    }\r\n\r\n    uint numCampaigns;\r\n    mapping (uint => Campaign) campaigns;\r\n\r\n    function newCampaign(address payable beneficiary, uint goal) public returns (uint campaignID) {\r\n        campaignID = numCampaigns++; // campaignID is return variable\r\n        // Creates new struct in memory and copies it to storage.\r\n        // We leave out the mapping type, because it is not valid in memory.\r\n        // If structs are copied (even from storage to storage), mapping types\r\n        // are always omitted, because they cannot be enumerated.\r\n        campaigns[campaignID] = Campaign(beneficiary, goal, 0, 0);\r\n    }\r\n\r\n    function contribute(uint campaignID) public payable {\r\n        Campaign storage c = campaigns[campaignID];\r\n        // Creates a new temporary memory struct, initialised with the given values\r\n        // and copies it over to storage.\r\n        // Note that you can also use Funder(msg.sender, msg.value) to initialise.\r\n        c.funders[c.numFunders++] = Funder({addr: msg.sender, amount: msg.value});\r\n        c.amount += msg.value;\r\n    }\r\n\r\n    function checkGoalReached(uint campaignID) public returns (bool reached) {\r\n        Campaign storage c = campaigns[campaignID];\r\n        if (c.amount < c.fundingGoal)\r\n            return false;\r\n        uint amount = c.amount;\r\n        c.amount = 0;\r\n        c.beneficiary.transfer(amount);\r\n        return true;\r\n    }\r\n    \r\n    function viewCampaignDetails(uint campaignID) public view returns (address, uint, uint,uint) {\r\n        Campaign storage c = campaigns[campaignID];\r\n        // have to use the numFunders to access the funders\r\n        return (c.beneficiary, c.fundingGoal, c.numFunders, c.amount);\r\n    }\r\n    \r\n    function viewCampaignFunders(uint campaignID) external view returns (address[] memory, uint256[] memory) {\r\n        Campaign storage c = campaigns[campaignID];\r\n        // have to use the numFunders to access the funders\r\n        // don't think this will work, maybe just hardcode it to 1000\r\n        address[] memory funders     = new address[](c.numFunders);\r\n        uint256[] memory amounts     = new uint256[](c.numFunders);\r\n        for (uint256 i = 0; i < c.numFunders; i++) {\r\n            Funder storage funder = c.funders[i];\r\n            funders[i] = funder.addr;\r\n            amounts[i] = funder.amount;\r\n        }\r\n      return (funders, amounts);\r\n    }\r\n\r\n}",
  "sourcePath": "C:/Users/stude/Documents/Projects/Dapps/crowdfund/contracts/CFunding.sol",
  "compiler": {
    "name": "solc",
    "version": "0.5.0+commit.1d4f565a.Emscripten.clang"
  },
  "schemaVersion": "3.0.1",
  "updatedAt": "2019-01-14T02:49:23.503Z",
  "devdoc": {
    "methods": {}
  },
  "userdoc": {
    "methods": {}
  }
}