{
  "contractName": "CrowdFunding",
  "abi": [
    {
      "constant": false,
      "inputs": [
        {
          "name": "beneficiary",
          "type": "address"
        },
        {
          "name": "goal",
          "type": "uint256"
        }
      ],
      "name": "newCampaign",
      "outputs": [
        {
          "name": "campaignID",
          "type": "uint256"
        }
      ],
      "payable": false,
      "stateMutability": "nonpayable",
      "type": "function"
    },
    {
      "constant": false,
      "inputs": [
        {
          "name": "campaignID",
          "type": "uint256"
        }
      ],
      "name": "contribute",
      "outputs": [],
      "payable": true,
      "stateMutability": "payable",
      "type": "function"
    },
    {
      "constant": false,
      "inputs": [
        {
          "name": "campaignID",
          "type": "uint256"
        }
      ],
      "name": "checkGoalReached",
      "outputs": [
        {
          "name": "reached",
          "type": "bool"
        }
      ],
      "payable": false,
      "stateMutability": "nonpayable",
      "type": "function"
    },
    {
      "constant": true,
      "inputs": [
        {
          "name": "campaignID",
          "type": "uint256"
        }
      ],
      "name": "viewCampaignDetails",
      "outputs": [
        {
          "name": "",
          "type": "address"
        },
        {
          "name": "",
          "type": "uint256"
        },
        {
          "name": "",
          "type": "uint256"
        },
        {
          "name": "",
          "type": "uint256"
        }
      ],
      "payable": false,
      "stateMutability": "view",
      "type": "function"
    },
    {
      "constant": true,
      "inputs": [
        {
          "name": "campaignID",
          "type": "uint256"
        }
      ],
      "name": "viewCampaignFunders",
      "outputs": [
        {
          "name": "",
          "type": "address[]"
        },
        {
          "name": "",
          "type": "uint256[]"
        }
      ],
      "payable": false,
      "stateMutability": "view",
      "type": "function"
    }
  ],
  "bytecode": "0x608060405234801561001057600080fd5b5061071a806100206000396000f3fe60806040526004361061006d576000357c0100000000000000000000000000000000000000000000000000000000900463ffffffff1680635b2329d414610072578063699c4f14146100c55780636d170e991461019d578063c1cbbca71461022d578063f7572cf31461025b575b600080fd5b34801561007e57600080fd5b506100ab6004803603602081101561009557600080fd5b81019080803590602001909291905050506102ca565b604051808215151515815260200191505060405180910390f35b3480156100d157600080fd5b506100fe600480360360208110156100e857600080fd5b8101908080359060200190929190505050610386565b604051808060200180602001838103835285818151815260200191508051906020019060200280838360005b8381101561014557808201518184015260208101905061012a565b50505050905001838103825284818151815260200191508051906020019060200280838360005b8381101561018757808201518184015260208101905061016c565b5050505090500194505050505060405180910390f35b3480156101a957600080fd5b506101d6600480360360208110156101c057600080fd5b81019080803590602001909291905050506104e8565b604051808573ffffffffffffffffffffffffffffffffffffffff1673ffffffffffffffffffffffffffffffffffffffff16815260200184815260200183815260200182815260200194505050505060405180910390f35b6102596004803603602081101561024357600080fd5b810190808035906020019092919050505061054c565b005b34801561026757600080fd5b506102b46004803603604081101561027e57600080fd5b81019080803573ffffffffffffffffffffffffffffffffffffffff1690602001909291908035906020019092919050505061061f565b6040518082815260200191505060405180910390f35b6000806001600084815260200190815260200160002090508060010154816003015410156102fc576000915050610381565b600081600301549050600082600301819055508160000160009054906101000a900473ffffffffffffffffffffffffffffffffffffffff1673ffffffffffffffffffffffffffffffffffffffff166108fc829081150290604051600060405180830381858888f19350505050158015610379573d6000803e3d6000fd5b506001925050505b919050565b6060806000600160008581526020019081526020016000209050606081600201546040519080825280602002602001820160405280156103d55781602001602082028038833980820191505090505b5090506060826002015460405190808252806020026020018201604052801561040d5781602001602082028038833980820191505090505b50905060008090505b83600201548110156104d957600084600401600083815260200190815260200160002090508060000160009054906101000a900473ffffffffffffffffffffffffffffffffffffffff16848381518110151561046e57fe5b9060200190602002019073ffffffffffffffffffffffffffffffffffffffff16908173ffffffffffffffffffffffffffffffffffffffff1681525050806001015483838151811015156104bd57fe5b9060200190602002018181525050508080600101915050610416565b50818194509450505050915091565b60008060008060006001600087815260200190815260200160002090508060000160009054906101000a900473ffffffffffffffffffffffffffffffffffffffff168160010154826002015483600301548393509450945094509450509193509193565b600060016000838152602001908152602001600020905060408051908101604052803373ffffffffffffffffffffffffffffffffffffffff1681526020013481525081600401600083600201600081548092919060010191905055815260200190815260200160002060008201518160000160006101000a81548173ffffffffffffffffffffffffffffffffffffffff021916908373ffffffffffffffffffffffffffffffffffffffff160217905550602082015181600101559050503481600301600082825401925050819055505050565b60008060008154809291906001019190505590506080604051908101604052808473ffffffffffffffffffffffffffffffffffffffff1681526020018381526020016000815260200160008152506001600083815260200190815260200160002060008201518160000160006101000a81548173ffffffffffffffffffffffffffffffffffffffff021916908373ffffffffffffffffffffffffffffffffffffffff1602179055506020820151816001015560408201518160020155606082015181600301559050509291505056fea165627a7a7230582069fc4c0a45ac5928cfcfc01153636c3a14548907d88bef007deccbe976d9db340029",
  "source": "pragma solidity >=0.4.11 <0.6.0;\r\n\r\ncontract CrowdFunding {\r\n    // Defines a new type with two fields.\r\n    struct Funder {\r\n        address addr;\r\n        uint amount;\r\n    }\r\n\r\n    struct Campaign {\r\n        address payable beneficiary;\r\n        uint fundingGoal;\r\n        uint numFunders;\r\n        uint amount;\r\n        mapping (uint => Funder) funders;\r\n    }\r\n\r\n    uint numCampaigns;\r\n    mapping (uint => Campaign) campaigns;\r\n\r\n    function newCampaign(address payable beneficiary, uint goal) public returns (uint campaignID) {\r\n        campaignID = numCampaigns++; // campaignID is return variable\r\n        // Creates new struct in memory and copies it to storage.\r\n        // We leave out the mapping type, because it is not valid in memory.\r\n        // If structs are copied (even from storage to storage), mapping types\r\n        // are always omitted, because they cannot be enumerated.\r\n        campaigns[campaignID] = Campaign(beneficiary, goal, 0, 0);\r\n    }\r\n\r\n    function contribute(uint campaignID) public payable {\r\n        Campaign storage c = campaigns[campaignID];\r\n        // Creates a new temporary memory struct, initialised with the given values\r\n        // and copies it over to storage.\r\n        // Note that you can also use Funder(msg.sender, msg.value) to initialise.\r\n        c.funders[c.numFunders++] = Funder({addr: msg.sender, amount: msg.value});\r\n        c.amount += msg.value;\r\n    }\r\n\r\n    function checkGoalReached(uint campaignID) public returns (bool reached) {\r\n        Campaign storage c = campaigns[campaignID];\r\n        if (c.amount < c.fundingGoal)\r\n            return false;\r\n        uint amount = c.amount;\r\n        c.amount = 0;\r\n        c.beneficiary.transfer(amount);\r\n        return true;\r\n    }\r\n    \r\n    function viewCampaignDetails(uint campaignID) public view returns (address, uint, uint,uint) {\r\n        Campaign storage c = campaigns[campaignID];\r\n        // have to use the numFunders to access the funders\r\n        return (c.beneficiary, c.fundingGoal, c.numFunders, c.amount);\r\n    }\r\n    \r\n    function viewCampaignFunders(uint campaignID) external view returns (address[] memory, uint256[] memory) {\r\n        Campaign storage c = campaigns[campaignID];\r\n        // have to use the numFunders to access the funders\r\n        // don't think this will work, maybe just hardcode it to 1000\r\n        address[] memory funders     = new address[](c.numFunders);\r\n        uint256[] memory amounts     = new uint256[](c.numFunders);\r\n        for (uint256 i = 0; i < c.numFunders; i++) {\r\n            Funder storage funder = c.funders[i];\r\n            funders[i] = funder.addr;\r\n            amounts[i] = funder.amount;\r\n        }\r\n      return (funders, amounts);\r\n    }\r\n\r\n}",
  "sourcePath": "C:/Users/stude/Documents/Projects/Dapps/crowdfund/contracts/CrowdFunding.sol",
  "compiler": {
    "name": "solc",
    "version": "0.5.0+commit.1d4f565a.Emscripten.clang"
  },
  "schemaVersion": "3.0.1",
  "updatedAt": "2019-01-14T02:37:07.500Z",
  "devdoc": {
    "methods": {}
  },
  "userdoc": {
    "methods": {}
  }
}